:020000040000FA
:10000000020443AB07AA06EB2401FEE43A90000485
:10001000F0A3CEF0ED14900001F08B828A83E0F51E
:1000200099222202039D75AC4075B5FF75B4CC438F
:10003000D210220204D243B20322220201DF900036
:100040000CE0B4550AA3E07006A3E0FF1207069087
:10005000000CE064557018A3E0B40113A3E0FF1294
:1000600006B0E4FF1206B0120070AF0B120070224F
:100070008FD32202071F75A21743A14053F8F34301
:10008000F801220202E8BB010689828A83E022503D
:1000900002E722BBFE02E32289828A83E49322BB29
:1000A000010689828A83F0225002F722BBFE01F307
:1000B00022E88FF0A4CC8BF0A42CFCE98EF0A42CC9
:1000C000FC8AF0EDA42CFCEA8EF0A4CDA8F08BF015
:1000D000A42DCC3825F0FDE98FF0A42CCD35F0FC13
:1000E000EB8EF0A4FEA9F0EB8FF0A4CFC5F02ECDDF
:1000F00039FEE43CFCEAA42DCE35F0FDE43CFC22C4
:1001000075F008758200EF2FFFEE33FECD33CDCCB6
:1001100033CCC58233C5829BED9AEC99E582984039
:100120000CF582EE9BFEED9AFDEC99FC0FD5F0D616
:10013000E4CEFBE4CDFAE4CCF9A88222B800C1B940
:100140000059BA002DEC8BF084CFCECDFCE5F0CB7E
:10015000F97818EF2FFFEE33FEED33FDEC33FCEBB7
:1001600033FB10D703994004EB99FB0FD8E5E4F972
:10017000FA227818EF2FFFEE33FEED33FDEC33FC5F
:10018000C933C910D7059BE99A4007EC9BFCE99A53
:10019000F90FD8E0E4C9FAE4CCFB2275F010EF2F98
:1001A000FFEE33FEED33FDCC33CCC833C810D70798
:1001B0009BEC9AE899400AED9BFDEC9AFCE899F8D3
:1001C0000FD5F0DAE4CDFBE4CCFAE4C8F922EB9FDA
:1001D000F5F0EA9E42F0E99D42F0E89C45F022C02D
:1001E000E0C083C082C0D075D000C000C001C00292
:1001F000C003C004C005C20BE5C054F024807003E6
:1002000002028324C0601B24E060030202BC853D1F
:10021000C253C2FEA209E43342C2C2C5753E000207
:1002200002BE30C153300E07D2C5C20E0202BE302C
:100230000711C2078539C22006030202BED20ED2C0
:1002400009807B200978AD3EED3395E0FCC3ED9548
:10025000237480F86C98501AAB24AA25A9261200A2
:1002600086F5C274012526F526E43525F525053EDB
:10027000804CD2C4C2058046300804D2C5803FD22B
:100280000B803BAD3EED3395E0FCC3ED95237480D0
:10029000F86C98501AAB3AAA3BA93CE5C212009FF1
:1002A0007401253CF53CE4353BF53B053ED2C1E508
:1002B00023B53E0AC205C2C1D2C48002D20B300BA4
:1002C0001053C17F43C180C2C5C2C4C2C1C205C2EE
:1002D0000BC2C0D005D004D003D002D001D000D0D2
:1002E000D0D082D083D0E032C0E0C0F0C083C082E2
:1002F000C0D075D000C000C001C002C003C004C09F
:1003000005C006C007E5D230E04353D2FE90000698
:10031000E0602A900008E0FEA3E0F5828E83E5D33A
:10032000F0900009E004F07006900008E004F090FE
:100330000006E014F0E0700812003E800385D30A46
:10034000E5D230E7C053D27F85D30A80B8E5D230FA
:10035000E13053D2FD900007E0602490000AE0FEF7
:10036000A3E0F5828E83E0F5D390000BE004F070FB
:100370000690000AE004F0900007E014F0800312F9
:1003800007AFD007D006D005D004D003D002D001EB
:10039000D000D0D0D082D083D0F0D0E032C0E0C046
:1003A000F0C083C082C0D075D000C000C001C002C0
:1003B000C003C004C005C006C007E5985403F50992
:1003C000F45298900000E0602DE50930E02890009C
:1003D00002E0FEA3E0F5828E83E599F0900003E051
:1003E00004F07006900002E004F0900000E014F0C9
:1003F000E0700312076FE50930E12D900001E06025
:1004000024900004E0FEA3E0F5828E83E0F599904D
:100410000005E004F07006900004E004F090000194
:10042000E014F080031207AED007D006D005D00448
:10043000D003D002D001D000D0D0D082D083D0F071
:10044000D0E03212003A787FE4F6D8FD75813E02A2
:10045000048D020555E493A3F8E493A34003F680CA
:1004600001F208DFF48029E493A3F85407240CC8B0
:10047000C333C4540F4420C8834004F4568001465B
:10048000F6DFE4800B01020408102040809005F69E
:10049000E47E019360BCA3FF543F30E509541FFE86
:1004A000E493A360010ECF54C025E060A840B8E4F7
:1004B00093A3FAE493A3F8E493A3C8C582C8CAC57A
:1004C00083CAF0A3C8C582C8CAC583CADFE9DEE70C
:1004D00080BEC0E0C0F0C083C082C0D075D000C074
:1004E00000C001C002C003C004C005C006C007E5CB
:1004F000F854F0FFF4440F52F8EF30E73DE51B608D
:1005000021300108A81EA6A3051E800385A308D5D7
:100510001B0D300305300002D2FA1207B0800385AC
:100520001B1DE51C601430F911300209A81FE6F507
:10053000A3051F800375A300151CD007D006D005A6
:10054000D004D003D002D001D000D0D0D082D0834C
:10055000D0F0D0E0321205B9E4FBFD7F1012075D48
:10056000D20CC20DE4FF120668C294D280D2AFC290
:100570009112078CEF700F120786EF70097E007FD3
:100580000C7D051206EA120798EF700F120792EF22
:1005900070097E007F0C7D051206F8D2917F8012D3
:1005A000071385A30DE4FF12071385A30E1206D8C7
:1005B00040FBC29112063080B885BF0F1207661249
:1005C000072B1207781207351207A612077F1207AA
:1005D0003F1200361200221207A21206C512069719
:1005E0001207491207AA12007612079E120026125D
:1005F0000753850FBF22C100C103C104C101C1025D
:10060000011B00011C00011D00011F00011E004113
:1006100000010041000000041301040C3004170322
:100620000100024100070041000600C10EC10500A3
:10063000E47512C8F511F510F50FE4FFFEFDFCABF3
:1006400012AA11A910A80FD31201CE401AE5122444
:10065000FFF512E51134FFF511E51034FFF510E553
:100660000F34FFF50F80D322A20C9203A20D92004B
:10067000D204C2F87E00300C027E40EE4FF5A1306D
:100680000D0BD2FAC3300C01D392FB8004C2FAC224
:10069000FB53F80FD2F822E59154045391FB759562
:1006A0003875949E75939E75925843910442912299
:1006B000D2911207131206D840FBC29130FF038576
:1006C000A30CAF0C22AF885388AF758DCCEF54408C
:1006D000FEEF54104E428822E4FFC20CE5A130E741
:1006E00002D20C0FBF03F5A20C22900002EEF0A381
:1006F000EFF0900000EDF022900008EEF0A3EFF094
:10070000900006EDF022D2911207131206D840FB9A
:10071000C29122C20C30F9048FA3D20CA20C225336
:10072000C17F43C18053917FC20532E5D854404216
:10073000D875DA082275A5C775F2DF75D5FE227562
:10074000E24075E10775E30122758E087589204343
:1007500088402275E60175A8D075E7022253984FAC
:10076000EB4F4DF59822E4F5BF53D9BFF5D9227E62
:10077000007F0C7D0502000375A45075D40F22750F
:10078000A74075DF3F22900001E0FF22900000E0CB
:10079000FF22900007E0FF22900006E0FF2243982E
:1007A0001022E4F5AF2275D6E72243C1C0222222EF
:0107B0002226
:00000001FF
