:020000040000FA
:10000000020473E59154045391FB75953875949EE1
:1000100075939E75925843910442912275A4507530
:10002000D40F220203B575AC4075B5FF75B4CC434F
:10003000D2102202050243B20322220201DFA20CE7
:100040009203A20D9200D204C2F87E00300C027E10
:1000500040EE4FF5A1300D0BD2FAC3300C01D39214
:10006000FB8004C2FAC2FB53F80FD2F822900001C1
:10007000E0FF2202071175A21743A14053F8F34392
:10008000F801220202E8BB010689828A83E022503D
:1000900002E722BBFE02E32289828A83E49322BB29
:1000A000010689828A83F0225002F722BBFE01F307
:1000B00022E88FF0A4CC8BF0A42CFCE98EF0A42CC9
:1000C000FC8AF0EDA42CFCEA8EF0A4CDA8F08BF015
:1000D000A42DCC3825F0FDE98FF0A42CCD35F0FC13
:1000E000EB8EF0A4FEA9F0EB8FF0A4CFC5F02ECDDF
:1000F00039FEE43CFCEAA42DCE35F0FDE43CFC22C4
:1001000075F008758200EF2FFFEE33FECD33CDCCB6
:1001100033CCC58233C5829BED9AEC99E582984039
:100120000CF582EE9BFEED9AFDEC99FC0FD5F0D616
:10013000E4CEFBE4CDFAE4CCF9A88222B800C1B940
:100140000059BA002DEC8BF084CFCECDFCE5F0CB7E
:10015000F97818EF2FFFEE33FEED33FDEC33FCEBB7
:1001600033FB10D703994004EB99FB0FD8E5E4F972
:10017000FA227818EF2FFFEE33FEED33FDEC33FC5F
:10018000C933C910D7059BE99A4007EC9BFCE99A53
:10019000F90FD8E0E4C9FAE4CCFB2275F010EF2F98
:1001A000FFEE33FEED33FDCC33CCC833C810D70798
:1001B0009BEC9AE899400AED9BFDEC9AFCE899F8D3
:1001C0000FD5F0DAE4CDFBE4CCFAE4C8F922EB9FDA
:1001D000F5F0EA9E42F0E99D42F0E89C45F022C02D
:1001E000E0C083C082C0D075D000C000C001C00292
:1001F000C003C004C005C20BE5C054F024807003E6
:1002000002028324C0601B24E060030202BC853D1F
:10021000C253C2FEA209E43342C2C2C5751E000227
:1002200002BE30C153300E07D2C5C20E0202BE302C
:100230000711C2078539C22006030202BED20ED2C0
:1002400009807B200978AD1EED3395E0FCC3ED9568
:10025000237480F86C98501AAB24AA25A9261200A2
:1002600086F5C274012526F526E43525F525051EFB
:10027000804CD2C4C2058046300804D2C5803FD22B
:100280000B803BAD1EED3395E0FCC3ED95237480F0
:10029000F86C98501AAB3AAA3BA93CE5C212009FF1
:1002A0007401253CF53CE4353BF53B051ED2C1E528
:1002B00023B51E0AC205C2C1D2C48002D20B300BC4
:1002C0001053C17F43C180C2C5C2C4C2C1C205C2EE
:1002D0000BC2C0D005D004D003D002D001D000D0D2
:1002E000D0D082D083D0E032C0E0C0F0C083C082E2
:1002F000C0D075D000C000C001C002C003C004C09F
:1003000005C006C007E5D230E05B53D2FE90000680
:10031000E06042900008E0FEA3E0FFF5828E83E5F6
:10032000D3F08F828E83E0FF740D2508F8A60705B1
:1003300008E508B40503750800900009E004F070B2
:1003400006900008E004F0900006E014F0E0700869
:100350001206B3800385D318E5D230E7A853D27FC5
:1003600085D31880A0E5D230E13053D2FD9000074C
:10037000E0602490000AE0FEA3E0F5828E83E0F5C1
:10038000D390000BE004F0700690000AE004F090B7
:100390000007E014F08003120790D007D006D005C4
:1003A000D004D003D002D001D000D0D0D082D083EE
:1003B000D0F0D0E032C0E0C0F0C083C082C0D075C1
:1003C000D000C000C001C002C003C004C005C00608
:1003D000C007E5985403F517F45298900000E060C8
:1003E00045E51730E040900002E0FEA3E0FFF58213
:1003F0008E83E599F08F828E83E0FF743F253EF86F
:10040000A607053EE53EB40503753E00900003E0F7
:1004100004F07006900002E004F0900000E014F098
:10042000E0700312078EE51730E12D900001E060C7
:1004300024900004E0FEA3E0F5828E83E0F599901D
:100440000005E004F07006900004E004F090000164
:10045000E014F0800312078FD007D006D005D00437
:10046000D003D002D001D000D0D0D082D083D0F041
:10047000D0E03212078D787FE4F6D8FD758148020E
:1004800004BD020585E493A3F8E493A34003F6803A
:1004900001F208DFF48029E493A3F85407240CC880
:1004A000C333C4540F4420C8834004F4568001462B
:1004B000F6DFE4800B010204081020408090060D56
:1004C000E47E019360BCA3FF543F30E509541FFE56
:1004D000E493A360010ECF54C025E060A840B8E4C7
:1004E00093A3FAE493A3F8E493A3C8C582C8CAC54A
:1004F00083CAF0A3C8C582C8CAC583CADFE9DEE7DC
:1005000080BEC0E0C0F0C083C082C0D075D000C043
:1005100000C001C002C003C004C005C006C007E59A
:10052000F854F0FFF4440F52F8EF30E73DE5446033
:1005300021300108A847A6A30547800385A316D547
:10054000440D300305300002D2FA12079180038572
:100550004446E545601430F911300209A848E6F533
:10056000A30548800375A3001545D007D006D00524
:10057000D004D003D002D001D000D0D0D082D0831C
:10058000D0F0D0E0321205D0E4FBFD7F1012074F0F
:10059000D20CC20DE4FF12003EC294D280D2AFC290
:1005A00091120768EF700F12006DEF70097E007FE7
:1005B0000C7D051206E9120774EF700F12076EEF3B
:1005C00070097E007F0C7D051206F712064780D168
:1005D00085BF1A12075812071D12001C1207271296
:1005E000078212076112073112003612003A120711
:1005F0007E1206A012000312073B12078612007635
:1006000012077A120026120745851ABF22C100C1BF
:1006100003C104C101C102014400014500014600BB
:1006200001480001470041000100410000000409A9
:1006300001040C30041203010002410007004100D4
:100640000600C10EC10500E4751DC8F51CF51BF5BB
:100650001AE4FFFEFDFCAB1DAA1CA91BA81AD312AD
:1006600001CE401AE51D24FFF51DE51C34FFF51CE5
:10067000E51B34FFF51BE51A34FFF51A80D322D2AF
:10068000911207051206C640FB85A319E4FF120765
:10069000051206C640FBADA3C291E519FEEDFF228F
:1006A000AF885388AF758DCCEF5440FEEF54104E99
:1006B000428822E50DB4550DE50EB40108AF0F12C6
:1006C000067F1206D822E4FFC20AE5A130E702D273
:1006D0000A0FBF03F5A20A22AD07AC06AF04EDF581
:1006E0001912078AAF1902078A900002EEF0A3EFF1
:1006F000F0900000EDF022900008EEF0A3EFF090F3
:100700000006EDF022C20A30F9048FA3D20AA20A31
:100710002253C17F43C18053917FC20532E5D85433
:100720004042D875DA082275A5C775F2DF75D5FE87
:100730002275E24075E10775E30122758E0875891F
:10074000204388402275E60175A8D075E702225340
:10075000984FEB4F4DF59822E4F5BF53D9BFF5D92B
:100760002275A74075DF3F22900000E0FF22900035
:1007700007E0FF22900006E0FF2243981022E4F5F4
:10078000AF2275D6E72243C1C0228FD32222222274
:02079000222223
:00000001FF
